S01700004763634170706C69636174696F6E312E737265635B
S11300000C942A000C9434000C9434000C943400A6
S11300100C9434000C9434000C9434000C9434008C
S11300200C9434000C9434000C9434000C9434007C
S11300300C9434000C9434000C9434000C9434006C
S11300400C9434000C9434000C9434000C9434005C
S11300500C94340011241FBECFE5D8E0DEBFCDBF21
S11300600E945E010C940B030C94000064E081E494
S11300700E94490163E081E40E94490162E081E455
S11300800E94490161E081E40E94490161E083E446
S11300900E943C010895CF93DF931F92CDB7DEB742
S11300A0198264E081E40E94570163E081E40E94C4
S11300B0570162E081E40E94570161E081E40E94FB
S11300C05701AE014F5F5F4F61E083E40E9443013B
S11300D007C0AE014F5F5F4F61E083E40E944301BC
S11300E089818823B1F30BC064E081E40E9450014C
S11300F0AE014F5F5F4F61E083E40E944301898159
S1130100813091F307C0AE014F5F5F4F61E083E43C
S11301100E94430189818823B1F30BC063E081E429
S11301200E945001AE014F5F5F4F61E083E40E9483
S113013043018981813091F307C0AE014F5F5F4F66
S113014061E083E40E94430189818823B1F30BC0F9
S113015062E081E40E945001AE014F5F5F4F61E0B5
S113016083E40E9443018981813091F307C0AE0189
S11301704F5F5F4F61E083E40E94430189818823DC
S1130180B1F30BC061E081E40E945001AE014F5F06
S11301905F4F61E083E40E9443018981813091F3E0
S11301A007C0AE014F5F5F4F61E083E40E944301EB
S11301B089818823B1F30BC064E081E40E94570174
S11301C0AE014F5F5F4F61E083E40E944301898188
S11301D0813091F307C0AE014F5F5F4F61E083E46C
S11301E00E94430189818823B1F30BC063E081E459
S11301F00E945701AE014F5F5F4F61E083E40E94AC
S113020043018981813091F307C0AE014F5F5F4F95
S113021061E083E40E94430189818823B1F30BC028
S113022062E081E40E945701AE014F5F5F4F61E0DD
S113023083E40E9443018981813091F307C0AE01B8
S11302404F5F5F4F61E083E40E944301898188230B
S1130250B1F30BC061E081E40E945701AE014F5F2E
S11302605F4F61E083E40E9443018981813091F30F
S11302700F90DF91CF910895982F862F40E0692F3A
S11302800E9463010895982F862F692F0E949D0272
S11302900895982F862F41E0692F0E9463010895E5
S11302A0982F862F41E0692F0E9400020895982F0D
S11302B0862F40E0692F0E94000208950E943600B4
S11302C00E944B00FDCF623469F118F4613441F0AF
S11302D08DC0633409F448C0643409F466C086C030
S11302E041110FC04AB321E030E0B90102C0660FEA
S11302F0771F8A95E2F7CB01809584238ABB81E03E
S11303000895413009F074C04AB321E030E0B901E6
S113031002C0660F771F8A95E2F7CB01842B8ABB54
S113032081E0089541110FC047B321E030E0B901E5
S113033002C0660F771F8A95E2F7CB01809584236C
S113034087BB81E00895413009F054C047B321E0F0
S113035030E0B90102C0660F771F8A95E2F7CB013E
S1130360842B87BB81E0089541110FC044B321E081
S113037030E0B90102C0660F771F8A95E2F7CB011E
S11303808095842384BB81E008954130A9F544B36A
S113039021E030E0B90102C0660F771F8A95E2F7C9
S11303A0CB01842B84BB81E0089541110FC041B37C
S11303B021E030E0B90102C0660F771F8A95E2F7A9
S11303C0CB018095842381BB81E008954130B1F451
S11303D041B321E030E0B90102C0660F771F8A956E
S11303E0E2F7CB01842B81BB81E0089580E008957E
S11303F080E0089580E0089580E0089580E0089505
S1130400623469F118F4613441F08DC0633409F445
S113041048C0643409F466C086C041110FC04BB3B0
S113042021E030E0B90102C0660F771F8A95E2F738
S1130430CB01809584238BBB81E00895413009F082
S113044074C04BB321E030E0B90102C0660F771FDE
S11304508A95E2F7CB01842B8BBB81E0089541118F
S11304600FC048B321E030E0B90102C0660F771F26
S11304708A95E2F7CB018095842388BB81E00895B7
S1130480413009F054C048B321E030E0B90102C062
S1130490660F771F8A95E2F7CB01842B88BB81E036
S11304A0089541110FC045B321E030E0B90102C005
S11304B0660F771F8A95E2F7CB018095842385BB6D
S11304C081E008954130A9F545B321E030E0B90158
S11304D002C0660F771F8A95E2F7CB01842B85BB98
S11304E081E0089541110FC042B321E030E0B90129
S11304F002C0660F771F8A95E2F7CB0180958423AB
S113050082BB81E008954130B1F442B321E030E090
S1130510B90102C0660F771F8A95E2F7CB01842BDD
S113052082BB81E0089580E0089580E0089580E032
S1130530089580E0089580E00895623411F118F47C
S1130540613439F066C06334A1F1643409F449C0FC
S113055060C099B321E030E0B901082E02C0660FF3
S1130560771F0A94E2F7292F30E026233723B901B5
S113057002C0759567958A95E2F7FA01608381E078
S1130580089596B321E030E0B901082E02C0660F49
S1130590771F0A94E2F7292F30E026233723B90185
S11305A002C0759567958A95E2F7FA01608381E048
S11305B0089593B321E030E0B901082E02C0660F1C
S11305C0771F0A94E2F7292F30E026233723B90155
S11305D002C0759567958A95E2F7FA01608381E018
S11305E0089590B321E030E0B901082E02C0660FEF
S11305F0771F0A94E2F7292F30E026233723B90125
S113060002C0759567958A95E2F7FA01608381E0E7
S10D0610089580E00895F894FFCFE8
S9030000FC
