:100000000C942A000C9434000C9434000C943400AA
:100010000C9434000C9434000C9434000C94340090
:100020000C9434000C9434000C9434000C94340080
:100030000C9434000C9434000C9434000C94340070
:100040000C9434000C9434000C9434000C94340060
:100050000C94340011241FBECFE5D8E0DEBFCDBF25
:100060000E945E010C94E1020C94000064E081E4C3
:100070000E94490163E081E40E94490162E081E459
:100080000E94490161E081E40E94490161E083E44A
:100090000E943C010895CF93DF931F92CDB7DEB746
:1000A000198264E081E40E94570163E081E40E94C8
:1000B000570162E081E40E94570161E081E40E94FF
:1000C0005701AE014F5F5F4F61E083E40E9443013F
:1000D00007C0AE014F5F5F4F61E083E40E944301C0
:1000E00089818823B1F30BC064E081E40E94500150
:1000F000AE014F5F5F4F61E083E40E94430189815D
:10010000813091F307C0AE014F5F5F4F61E083E440
:100110000E94430189818823B1F30BC063E081E42D
:100120000E945001AE014F5F5F4F61E083E40E9487
:1001300043018981813091F307C0AE014F5F5F4F6A
:1001400061E083E40E94430189818823B1F30BC0FD
:1001500062E081E40E945001AE014F5F5F4F61E0B9
:1001600083E40E9443018981813091F307C0AE018D
:100170004F5F5F4F61E083E40E94430189818823E0
:10018000B1F30BC061E081E40E945001AE014F5F0A
:100190005F4F61E083E40E9443018981813091F3E4
:1001A00007C0AE014F5F5F4F61E083E40E944301EF
:1001B00089818823B1F30BC064E081E40E94570178
:1001C000AE014F5F5F4F61E083E40E94430189818C
:1001D000813091F307C0AE014F5F5F4F61E083E470
:1001E0000E94430189818823B1F30BC063E081E45D
:1001F0000E945701AE014F5F5F4F61E083E40E94B0
:1002000043018981813091F307C0AE014F5F5F4F99
:1002100061E083E40E94430189818823B1F30BC02C
:1002200062E081E40E945701AE014F5F5F4F61E0E1
:1002300083E40E9443018981813091F307C0AE01BC
:100240004F5F5F4F61E083E40E944301898188230F
:10025000B1F30BC061E081E40E945701AE014F5F32
:100260005F4F61E083E40E9443018981813091F313
:100270000F90DF91CF910895982F862F40E0692F3E
:100280000E9463010895982F862F692F0E9479029A
:100290000895982F862F41E0692F0E9463010895E9
:1002A000982F862F41E0692F0E94EE010895982F24
:1002B000862F40E0692F0E94EE0108950E943600CB
:1002C0000E944B00FDCF623459F118F4613441F0C3
:1002D0000895633409F444C0643409F460C0089597
:1002E00041110EC04AB321E030E0B90102C0660FEF
:1002F000771F8A95E2F7CB01809584238ABB089506
:10030000413009F06AC04AB321E030E0B90102C0CF
:10031000660F771F8A95E2F7CB01842B8ABB08957D
:1003200041110EC047B321E030E0B90102C0660FB1
:10033000771F8A95E2F7CB018095842387BB0895C8
:10034000413009F04AC047B321E030E0B90102C0B2
:10035000660F771F8A95E2F7CB01842B87BB089540
:1003600041110EC044B321E030E0B90102C0660F74
:10037000771F8A95E2F7CB018095842384BB08958B
:10038000413059F544B321E030E0B90102C0660FB5
:10039000771F8A95E2F7CB01842B84BB0895411126
:1003A0000EC041B321E030E0B90102C0660F771FF3
:1003B0008A95E2F7CB018095842381BB0895413073
:1003C00061F441B321E030E0B90102C0660F771F4C
:1003D0008A95E2F7CB01842B81BB0895623459F1F1
:1003E00018F4613441F00895633409F444C064346E
:1003F00009F460C0089541110EC04BB321E030E014
:10040000B90102C0660F771F8A95E2F7CB0180958C
:1004100084238BBB0895413009F06AC04BB321E0BF
:1004200030E0B90102C0660F771F8A95E2F7CB0171
:10043000842B8BBB089541110EC048B321E030E0FE
:10044000B90102C0660F771F8A95E2F7CB0180954C
:10045000842388BB0895413009F04AC048B321E0A5
:1004600030E0B90102C0660F771F8A95E2F7CB0131
:10047000842B88BB089541110EC045B321E030E0C4
:10048000B90102C0660F771F8A95E2F7CB0180950C
:10049000842385BB0895413059F545B321E030E010
:1004A000B90102C0660F771F8A95E2F7CB01842B52
:1004B00085BB089541110EC042B321E030E0B9017F
:1004C00002C0660F771F8A95E2F7CB0180958423DF
:1004D00082BB0895413061F442B321E030E0B901BC
:1004E00002C0660F771F8A95E2F7CB01842B82BB8F
:1004F0000895623409F118F4613439F008956334D1
:1005000091F1643409F446C0089599B321E030E0D4
:10051000B901082E02C0660F771F0A94E2F7292F4F
:1005200030E026233723B90102C0759567958A9577
:10053000E2F7FA016083089596B321E030E0B90153
:10054000082E02C0660F771F0A94E2F7292F30E0C9
:1005500026233723B90102C0759567958A95E2F77E
:10056000FA016083089593B321E030E0B901082EC9
:1005700002C0660F771F0A94E2F7292F30E0262386
:100580003723B90102C0759567958A95E2F7FA019C
:100590006083089590B321E030E0B901082E02C0D5
:1005A000660F771F0A94E2F7292F30E026233723BE
:1005B000B90102C0759567958A95E2F7FA016083E3
:0605C0000895F894FFCF3E
:00000001FF
